:020000040800F2
:10000000900700204D020008F7110008A711000812
:10001000F511000899030008C11500080000000050
:100020000000000000000000000000001B1200089B
:100030009B0300080000000019120008A11200082C
:1000400067020008670200086702000867020008EC
:1000500067020008670200089D03000867020008A5
:10006000AB030008B103000867020008670200083C
:1000700067020008670200086702000867020008BC
:1000800067020008670200086702000867020008AC
:10009000670200086702000867020008670200089C
:1000A000670200086702000867020008670200088C
:1000B000670200086702000867020008670200087C
:1000C000670200086702000867020008670200086C
:1000D000670200087D150008670200086702000833
:1000E000A30300086702000867020008670200080F
:1000F000670200086702000867020008670200083C
:10010000670200086702000867020008670200082B
:10011000670200086702000867020008670200081B
:10012000670200086702000867020008670200080B
:1001300067020008670200086702000867020008FB
:1001400067020008670200086702000867020008EB
:1001500067020008670200086702000867020008DB
:1001600067020008670200086702000867020008CB
:10017000670200086702000867020008000000002C
:1001800067020008670200086702000867020008AB
:10019000670200086702000867020008670200089B
:1001A00067020008670200086702000800F002F812
:1001B00000F03CF80AA090E8000C82448344AAF1C5
:1001C0000107DA4501D100F031F8AFF2090EBAE8C3
:1001D0000F0013F0010F18BFFB1A43F0010318477B
:1001E0001015000030150000103A24BF78C878C1FF
:1001F000FAD8520724BF30C830C144BF04680C602D
:10020000704700000023002400250026103A28BF74
:1002100078C1FBD8520728BF30C148BF0B60704778
:100220001FB501F057FA1FBD10B510BD00F06EF8F4
:100230001146FFF7F5FF01F001FA00F0A0F803B452
:10024000FFF7F2FF03BC01F0BCF90000094880474A
:1002500009480047FEE7FEE7FEE7FEE7FEE7FEE7A8
:10026000FEE7FEE7FEE7FEE704480549054A064BC0
:1002700070470000A5120008AD01000890010020A1
:10028000900700209003002090030020704700009A
:100290000FB4044910B503AA029800F009F810BC85
:1002A0005DF814FB200000207047704770477047CE
:1002B000074B70B50D467B4400F011F80446284604
:1002C00000F020F810B14FF0FF3070BD204670BD37
:1002D0006F13000001694A1C02610878704700B57D
:1002E0008FB0CDE901310021059105497944CDE96F
:1002F00003101146684600F02EF80FB000BD000054
:10030000E5FFFFFF007B00F080007047754600F0BE
:100310003FF8AE4605006946534620F00700854683
:1003200018B020B5FFF7A0FFBDE820404FF0000651
:100330004FF000074FF000084FF0000B21F00701CD
:10034000AC46ACE8C009ACE8C009ACE8C009ACE810
:10035000C0098D4670472DE9F04106460024D6E9D4
:100360000170F5688046304603E04146B847641C9A
:100370003046A8470028F8D12046BDE8F08110B5E6
:100380000446AFF300802046BDE81040FFF757BF9A
:10039000004870472C010020FEE77047012000F064
:1003A000C3B84FF4005000F0BFB8042000F0BCB850
:1003B000082000F0B9B800002A4810B5016886B0DE
:1003C00041F001010160016801F00101059101683E
:1003D00041F004010160016801F004010591016828
:1003E00041F0800101600068012400F08000059068
:1003F0001D486946CDE90040022002901B4800F0EC
:100400009FF8600300901A48CDE901046946194835
:1004100000F096F80C2000906946174800F090F81C
:1004200000220221062000F0C9F9062000F0BAF9E6
:1004300001220221082000F0C1F9082000F0B2F9E1
:1004400002221146092000F0B9F9092000F0AAF9AA
:1004500003220221282000F0B1F9282000F0A2F99F
:1004600006B010BD303802400000111000000240FC
:100470000000211000080240001C024070B5044634
:10048000642001F0A9F8244D012C12D02348042C3B
:1004900023D0082C2DD04FF400518C421CD1204881
:1004A00000F03CF9002817D1D5F8840278B3002079
:1004B00010E001211B4800F031F901280CD1D5F8DA
:1004C000800228B10020C5F88002D5F88002EDE74F
:1004D0000120F8E7C5F8840270BD042100F01EF980
:1004E0000028F9D1D5F8800290B10020C5F880022B
:1004F00070BD082100F012F90028F9D1D5F8840266
:1005000018B10020C5F88402ECE70120FAE701E009
:100510000120EBE70120DDE700804042001C0240A3
:100520000008024000000240044910B50A68024277
:1005300002D00860FFF7A2FF10BD0000143C01408C
:100540002DE9F84FDFF8A091002209F1040A0AF121
:10055000040B4FF00F080BF1040E01260B689640B8
:100560003340B34271D14C68022C01D0122C11D10E
:10057000D40800EB84073D6A5407E40E08FA04FC33
:1005800025EA0C05D1F810C00CFA04FC4CEA050C65
:10059000C7F820C007685400032591F804C0A5409F
:1005A0000CF0030CAF430CFA04FC4CEA070CC0F847
:1005B00000C04F68012F05D0022F03D0112F01D0AA
:1005C000122F11D18768D1F80CC0AF430CFA04FC8C
:1005D0004CEA070CC0F808C04768B7430E79C6F369
:1005E000001696403E434660C668AE438D68A540FF
:1005F0003543C5604C68E4006FD53C4C256845F434
:1006000080452560246822F0030504F480440094AA
:10061000374C2E19D6F808789407250F08FA05F4F8
:10062000A743344CA04201D100242EE0324CA0421A
:1006300001D1012429E0314CA04201D1022424E05F
:100640002F4CA04202D103241FE046E02D4CA042D3
:1006500001D1042419E02C4CA04201D1052414E05E
:100660002A4CA04201D106240FE0294CA04201D11E
:1006700007240AE0274CA04201D1082405E0264CBB
:10068000A04201D1092400E00A24AC403C43C6F852
:100690000848D9F800404D464E689C43F60300D503
:1006A0001C432C60DAF8004055464E689C43B60364
:1006B00000D51C432C60DBF800405D464E689C432F
:1006C000F60200D51C432C60DEF8004075464E68EB
:1006D0009C43B60200D51C432C60521C102AFFF428
:1006E0003CAFBDE8F88F0000003C014044380240B8
:1006F00000300140000002400004024000080240B7
:10070000000C024000100240001402400018024099
:10071000001C024000200240002402400069084002
:1007200000D0012070470AB1816170470904FBE7DE
:10073000014800687047000014000020024801686A
:10074000491C016070470000140000200B4810B5E0
:10075000016841F400710160016841F48061016049
:10076000016841F480710160052000F047F80F2016
:1007700000F006F800F015F8002010BD003C024023
:1007800010B5044600F094F94FF47A71B0FBF1F023
:1007900000F0A8FB00222146501E00F00FF80020B8
:1007A00010BD704700F01F020121914040098000F8
:1007B00000F1E020C0F8001170470000F0B40E4BCB
:1007C0001B68C3F30223C3F10704042C00D90424DB
:1007D0001D1D072D01D2002300E0DB1E012606FAB5
:1007E00004F56D1E0D409D409E40761E164045EA64
:1007F0000601F0BC00F000BD0CED00E0064A00F080
:10080000070110684FF6FF03184040EA0120034932
:1008100008431060704700000CED00E00000FA058E
:100820002DE9F8431D48016841F0805101600068DE
:10083000012700F080500090380490FAA0F0DFF813
:100840006080B0FA80F048F82070FFF771FF04462E
:100850004FF47A75134E04E0FFF76AFF001BA842BD
:1008600013D87068C003F7D54FF4003090FAA0F0A9
:10087000B0FA80F048F82070FFF75AFF044607E00E
:10088000FFF756FF001BA84202D90320BDE8F883FA
:1008900070688003F4D50020F8E70000403802407B
:1008A00000000E42007000402DE9F05FDFF8F8A173
:1008B00004460F46DAF80000DFF8F08100F00F027E
:1008C000C8B27A49814641F2883608F10808BA422E
:1008D00061D202468AF80020DAF8000000F00F002A
:1008E000B8427DD12078800707D5D8F80020A368CA
:1008F00022F0F0021A43C8F800202078C0072DD05B
:10090000606801281AD002281BD0032819D0096872
:100910008907002964DAD8F80010474621F003015E
:100920000143C8F80010FFF703FF0546606801287F
:100930000FD0022818D003281CD027E009688903AB
:10094000E7E709688901E4E7FFF7F2FE401BB042E0
:1009500058D83868C0F381000128F5D188E0FFF746
:10096000E7FE401BB0424DD83868C0F38100022832
:10097000F5D17DE03868FFF7DBFE401BB042F9D9C6
:1009800040E0FFF7D5FE401BB0423BD8386810F07E
:100990000C0FF6D16CE02078800707D5D8F800203E
:1009A000A36822F0F0021A43C8F800202078C0079C
:1009B0004CD06068012828D0022829D0032827D0ED
:1009C00009688907002949DAD8F8002022F00302D3
:1009D0000243C8F80020FFF7ABFE0546606800E060
:1009E0003CE001281DD0022829D0032838D0B34686
:1009F0004646306810F00C0F28D0FFF799FE411BD7
:100A00005945F6D90320BDE8F09F09688903D9E765
:100A100009688901D6E7FFF78BFE411B594502D9CA
:100A2000F0E7B34646463068C0F381000128F2D1B2
:100A30000CE0FFF77DFE411B594502D9E2E7B346C2
:100A400046463068C0F381000228F2D18AF800904F
:100A5000DAF8000000F00F00B84209D00120D2E718
:100A600044462068FFF764FE401BB042F9D9C9E74D
:100A70002078400707D5D8F80010E26821F4E0514B
:100A80001143C8F800102078000708D5D8F80010E6
:100A9000226921F4604141EAC201C8F800100F2028
:100AA000FFF76EFE0020AEE7003C02400038024037
:100AB00010B500F043F808490968F02292FAA2F252
:100AC00001F0F001B2FA82F2D140044A515CC84010
:100AD0000349086010BD000008380240DE16000817
:100AE0000000002010B5FFF7E3FF074909684FF445
:100AF000E05292FAA2F201F4E051B2FA82F2D1404D
:100B0000024A515CC84010BD08380240DE16000899
:100B100010B5FFF7CDFF074909684FF4604292FA1C
:100B2000A2F201F46041B2FA82F2D140024A515C71
:100B3000C84010BD08380240DE16000830B519481C
:100B4000006810F00C01184812D0184C04290ED07F
:100B500008290DD1134A121F1168136801F03F01D3
:100B60005D0247F6C07304D5B4FBF1F003E0204604
:100B700030BDB0FBF1F01168194093FAA3F3B3FA5A
:100B800083F3D940484311684FF4403292FAA2F2FD
:100B900001F44031B2FA82F2D140491C4900B0FB65
:100BA000F1F030BD083802400024F40040787D01A7
:100BB0002DE9F84F04460078DFF8FCA2BF4DC007CE
:100BC0004FF0000648D0DAF800105046C1F381011A
:100BD000012908D00068C0F3810002280AD1281D2D
:100BE0000068400206D52868800335D56068002873
:100BF00073D031E0DFF8C49209F1020989F800608E
:100C0000FFF796FD074641F2883804E0FFF790FDB4
:100C1000C11B41457AD828688003F7D4207989F828
:100C20000000606860B1FFF783FD074604E0FFF74E
:100C30007FFDC11B4145EDD828688003F7D50BE047
:100C4000FFF776FD074604E0FFF772FDC11B414543
:100C5000E0D828688003F7D42078DFF86492800712
:100C600044D5DAF80010504611F00C0F4FF0F80898
:100C700009D00068C0F3810002280BD18E48001F04
:100C80000068400206D42868800714D5E06801286F
:100C900023D110E0E068D0B10120C9F80000FFF7CF
:100CA00047FD074604E0FFF743FDC01B6428B1D8A9
:100CB00028688007F7D5286898FAA8F22169B2FA5F
:100CC00082F220F0F8009140084328600EE0C9F855
:100CD0000060FFF72DFD074605E0EAE0FFF728FD7D
:100CE000C01B642812D828688007F7D42078000732
:100CF00025D5DFF8C4817348616908F16C0881B1BA
:100D000001210160FFF714FD074605E07EE0FFF7D3
:100D10000FFDC01B642879D8D8F800008007F6D5ED
:100D20000DE00660FFF704FD074604E0FFF700FD55
:100D3000C01B64286AD8D8F800008007F6D4207851
:100D4000400753D55C483830016841F0805101605C
:100D50000068DFF8748100F080500090D8F800102F
:100D600041F48071C8F80010FFF7E2FC074604E088
:100D7000FFF7DEFCC01B642848D8D8F80000C00587
:100D8000F6D5DFF834B10BF1680B8BF80060FFF794
:100D9000CFFC074641F2883804E0FFF7C9FCC11BCD
:100DA00041457ED8DBF800008007F6D4207A8BF826
:100DB0000000A06868B1FFF7BBFC074604E0FFF73E
:100DC000B7FCC11B41456CD8DBF800008007F6D5A5
:100DD0000CE0FFF7ADFC074604E0FFF7A9FCC11BE0
:100DE00041455ED8DBF800008007F6D4A069E8B37F
:100DF000DAF80010C1F3810102295AD0022806D086
:100E0000C9F86060FFF794FC04464DE049E04F46A6
:100E1000C9F86060FFF78CFC064604E0FFF788FC29
:100E2000801B64283DD828688001F7D4D4E90701E5
:100E3000084347F6C07191FAA1F1626AB1FA81F1F3
:100E40008A40A16A4FF0FF3303EB51014FF4403366
:100E500093FAA3F3B3FA83F399400A4310434FF094
:100E6000706292FAA2F2B2FA82F200E01FE0E16A46
:100E7000914008431049091F086001203866FFF7B8
:100E800057FC044604E0FFF753FC001B642808D815
:100E900028688001F7D50AE0FFF74AFC001B6428A8
:100EA00002D90320BDE8F88F28688001F4D400201F
:100EB000F8E70120F6E70000083802400038024059
:100EC00000004742800E4742007000404FF0E02192
:100ED0000428086903D020F004000861704740F03E
:100EE0000400FAE710B5401EB0F1807F01D3012065
:100EF00010BD4FF0E02460610F21601700F07CF915
:100F00000020A06107202061002010BD704790F8EC
:100F10003900704738B5016804460868CA68C0F3EC
:100F2000000002F4807238B132B10868486800905D
:100F3000E06B40F00100E06308684A69C0F34000DC
:100F400002F0010238B132B1086848680090E06BE5
:100F500040F00400E06308684A69C0F3800002F0D2
:100F6000010238B132B1086848680090E06B40F087
:100F70000200E06308684A69C0F3C00002F00102A1
:100F800038B132B1086848680090E06B40F0080062
:100F9000E0630868C968C0F3401001F0200118B18F
:100FA00011B1204600F0A8F920680168C068C1F3BB
:100FB000C01100F0800019B110B1204600F0AAFA6B
:100FC00021680868CA68C0F3801002F04002012559
:100FD00068B162B1CA68204622F04002CA6094F843
:100FE000391032290CD080F8395000F0DBF8E06B72
:100FF000002804D084F839502046FFF787FF38BD19
:10100000222180F83910F0E770B5040004D094F87C
:101010003900002510B106E0012070BD84F8385079
:10102000204600F021F8022084F839002068C168C9
:1010300021F40051C160204600F0B2F92068016936
:1010400021F4904101612068416921F02A01416148
:101050002068C16841F40051C160E563012084F853
:101060003900002070BD000010B500681A4986B034
:1010700088422FD11948016841F0010101600068E0
:1010800000F00100059015481430016841F010018E
:1010900001600068012100F0100005904FF400701D
:1010A00000900220CDE90101039007200C4C049030
:1010B00069462046FFF744FA21150091694620460B
:1010C000FFF73EFA2520FFF76DFB0322114625208E
:1010D000FFF774FB06B010BD00100140303802402D
:1010E0000000024090F83930012B01D0122B2BD197
:1010F00031B32AB390F83830012B25D0012380F882
:10110000383081628285C2850022C26390F839102E
:10111000122917D0222180F839100168CB6843F4D6
:101120008073CB6001684B6943F001034B6180F829
:1011300038200068C16841F02001C160002070477C
:10114000012070473221E6E70220704730B5006881
:10115000114988420CD1114A5088010408D4114623
:10116000440409784FF0000306D50A2901D05380C2
:1011700030BD40F400400DE00D2909D0C0F30D044E
:10118000074D401C80B229555080C728EFD830BD8C
:1011900040F48040508030BD001001401C00002011
:1011A000240000207047FEE7104810B5016886B0A3
:1011B00041F0020101600068012100F00200059089
:1011C0000320CDE90210CDE90001094C6946204613
:1011D000FFF7B6F9012211462046FFF7A4FA0122D3
:1011E00002212046FFF79FFA06B010BD30380240BA
:1011F00000040240FEE770470907090E002806DADE
:1012000000F00F0000F1E02080F8141D704700F19D
:10121000E02080F8001470477047704770B51E4C8E
:1012200092B00025266846F080562660246804F0B7
:1012300080541194194C266846F440462660246870
:101240000DF1240C04F44044119401240094019401
:10125000022406948CE80D006605CDE90761684616
:10126000FFF7A6FC00B1FEE7FFF7DAFA00B1FEE7F0
:101270000CA90F2081E831004FF4A0500F904FF4DB
:101280008050109005210CA8FFF70EFB002800D01D
:10129000FEE712B070BD0000403802400070004010
:1012A000FFF74CBA1048016841F4700101600F4823
:1012B000016841F0010101600C4A0021083211600F
:1012C00002680B4B1A400260031D0A4A1A6002684A
:1012D00022F48022026005480C3001600249580661
:1012E000803908607047000088ED00E00038024057
:1012F000FFFFF6FE1030002410B590F839102229B7
:1013000003D0322901D0022010BD8168B1F5805F81
:1013100011D00169002901681FD0496801F07F03DD
:10132000816A4A1C82620B70C18D491E0904090C36
:10133000C18518D02FE00269816A002A02685268CC
:1013400005D0D2B20A80816A491C8162ECE7C2F3FF
:1013500008020A80816A891CF7E74A68816A4B1C87
:1013600083620A70E0E70168CA6822F02002CA605E
:1013700090F83910322910D00168CA6822F48072BE
:10138000CA6001684A6922F001024A61012180F8BD
:101390003910FFF7DBFE002010BD1221F7E7000037
:1013A0002DE9F041044600680169E26821F44051EA
:1013B0000A4302612068C16849F20C6291432369C3
:1013C000A268E5691A4363692B431A430A43C26062
:1013D0002068416921F44072A16911434161E069CB
:1013E00064263225B0F5004F484A494920681DD08F
:1013F000884201D0904269D1FFF78AFB00EBC0011F
:1014000001EB00106168B0468900B0FBF1F1B1FB5F
:10141000F8F6FFF77DFB00EBC00101EB00106168FF
:101420008900B0FBF1F7FFF773FB68E0884201D059
:10143000904219D1FFF76CFB00EBC00101EB0010EB
:101440006168B0464900B0FBF1F1B1FBF8F6FFF777
:101450005FFB00EBC00101EB001061684900B0FBCD
:10146000F1F7FFF755FB18E0FFF73CFB00EBC0017D
:1014700001EB00106168B0464900B0FBF1F1B1FB2F
:10148000F8F6FFF72FFB00EBC00101EB00106168DD
:101490004900B0FBF1F7FFF725FB00EBC00101EBC2
:1014A000001061684900B0FBF1F1B1FBF8F06FF09A
:1014B0001801484307EB800005EB0011B1FBF8F081
:1014C000216866F31F108860BDE8F081FFF70AFB12
:1014D00000EBC00101EB00106168B0468900B0FB71
:1014E000F1F1B1FBF8F6FFF7FDFA00EBC00101EBFB
:1014F000001061688900B0FBF1F7FFF7F3FA00EB29
:10150000C00101EB001061688900CCE700140140C4
:101510000010014090F83910122903D0322901D06F
:10152000022070478168B1F5805F016A0BD04A1CC8
:101530000262026809785160C18C491E0904090CD5
:10154000C1840ED017E009880268C1F30801516018
:1015500001690029016A02D0491C0162ECE7891C7B
:10156000FBE70168CA6822F08002CA600068C168AF
:1015700041F04001C16000207047000070B50024B8
:101580000C4D0D48FFF7C6FC02E0641CAC4204D8C9
:101590000948FFF7BCFC0128F7D1002402E0641CD5
:1015A000AC4206D8012205490348FFF79BFD0028FD
:1015B000F5D170BDFFFF0100EC0000201C000020F1
:1015C000FEE7704710B504460420FFF77FFC014892
:1015D000046010BD1800002070B5054600244FF4CB
:1015E0007A7603E0304600F005F8641CAC42F9D38B
:1015F00070BD000070B54FF0E02500216C69094A0C
:10160000AB6912685043AA699A42FCD002D2A3EB9C
:10161000020302E0A4EB020633441944134681425C
:10162000F1D370BD1800002003490A685206FCD5AA
:10163000C2B24A607047000000100140FFF786F810
:101640000823022219214FF4B470FFF7E7FDB420FC
:10165000FFF7B8FF4FF4E13000F020F8FFF7A4FDEA
:10166000FEF7AAFE4FF47A7403A0FEF711FE20469F
:10167000FFF7B2FFF8E700004F4B2CC3BFB8F431BF
:1016800073B4F2D3A1D2BBB4CE4F4BCCE1CABEB33C
:10169000CCD0F2D4CBD0D00D0A0000000B4910B54D
:1016A000094AC1E9002000208860C860086188619B
:1016B0000C2048610846FFF7A7FCBDE81040012256
:1016C00003490248FFF70EBD00100140EC00002066
:1016D0001C0000204FF04070E1EE100A704700003F
:1016E00000000102030401020304060708090000C8
:1016F000101700080000002024000000E801000886
:1017000034170008240000206C07000004020008C1
:101710000024F400000000000000000001020304A7
:10172000060708090000000000000000000000009B
:0417300000000000B5
:04000005080001AD41
:00000001FF
